{
  "_format": "hh-sol-artifact-1",
  "contractName": "AgriVerify",
  "sourceName": "contracts/AlgiVerify.sol",
  "abi": [
    {
      "inputs": [
        {
          "internalType": "uint256",
          "name": "initialSupply",
          "type": "uint256"
        }
      ],
      "stateMutability": "nonpayable",
      "type": "constructor"
    },
    {
      "inputs": [
        {
          "internalType": "address",
          "name": "spender",
          "type": "address"
        },
        {
          "internalType": "uint256",
          "name": "allowance",
          "type": "uint256"
        },
        {
          "internalType": "uint256",
          "name": "needed",
          "type": "uint256"
        }
      ],
      "name": "ERC20InsufficientAllowance",
      "type": "error"
    },
    {
      "inputs": [
        {
          "internalType": "address",
          "name": "sender",
          "type": "address"
        },
        {
          "internalType": "uint256",
          "name": "balance",
          "type": "uint256"
        },
        {
          "internalType": "uint256",
          "name": "needed",
          "type": "uint256"
        }
      ],
      "name": "ERC20InsufficientBalance",
      "type": "error"
    },
    {
      "inputs": [
        {
          "internalType": "address",
          "name": "approver",
          "type": "address"
        }
      ],
      "name": "ERC20InvalidApprover",
      "type": "error"
    },
    {
      "inputs": [
        {
          "internalType": "address",
          "name": "receiver",
          "type": "address"
        }
      ],
      "name": "ERC20InvalidReceiver",
      "type": "error"
    },
    {
      "inputs": [
        {
          "internalType": "address",
          "name": "sender",
          "type": "address"
        }
      ],
      "name": "ERC20InvalidSender",
      "type": "error"
    },
    {
      "inputs": [
        {
          "internalType": "address",
          "name": "spender",
          "type": "address"
        }
      ],
      "name": "ERC20InvalidSpender",
      "type": "error"
    },
    {
      "anonymous": false,
      "inputs": [
        {
          "indexed": true,
          "internalType": "address",
          "name": "owner",
          "type": "address"
        },
        {
          "indexed": true,
          "internalType": "address",
          "name": "spender",
          "type": "address"
        },
        {
          "indexed": false,
          "internalType": "uint256",
          "name": "value",
          "type": "uint256"
        }
      ],
      "name": "Approval",
      "type": "event"
    },
    {
      "anonymous": false,
      "inputs": [
        {
          "indexed": true,
          "internalType": "uint256",
          "name": "cropId",
          "type": "uint256"
        },
        {
          "indexed": true,
          "internalType": "address",
          "name": "certifier",
          "type": "address"
        }
      ],
      "name": "CropCertified",
      "type": "event"
    },
    {
      "anonymous": false,
      "inputs": [
        {
          "indexed": true,
          "internalType": "uint256",
          "name": "cropId",
          "type": "uint256"
        },
        {
          "indexed": false,
          "internalType": "string",
          "name": "cropName",
          "type": "string"
        },
        {
          "indexed": true,
          "internalType": "address",
          "name": "farmer",
          "type": "address"
        }
      ],
      "name": "CropSubmitted",
      "type": "event"
    },
    {
      "anonymous": false,
      "inputs": [
        {
          "indexed": true,
          "internalType": "address",
          "name": "farmerAddress",
          "type": "address"
        },
        {
          "indexed": false,
          "internalType": "string",
          "name": "name",
          "type": "string"
        }
      ],
      "name": "FarmerRegistered",
      "type": "event"
    },
    {
      "anonymous": false,
      "inputs": [
        {
          "indexed": true,
          "internalType": "address",
          "name": "from",
          "type": "address"
        },
        {
          "indexed": true,
          "internalType": "address",
          "name": "to",
          "type": "address"
        },
        {
          "indexed": false,
          "internalType": "uint256",
          "name": "value",
          "type": "uint256"
        }
      ],
      "name": "Transfer",
      "type": "event"
    },
    {
      "inputs": [
        {
          "internalType": "address",
          "name": "owner",
          "type": "address"
        },
        {
          "internalType": "address",
          "name": "spender",
          "type": "address"
        }
      ],
      "name": "allowance",
      "outputs": [
        {
          "internalType": "uint256",
          "name": "",
          "type": "uint256"
        }
      ],
      "stateMutability": "view",
      "type": "function"
    },
    {
      "inputs": [
        {
          "internalType": "address",
          "name": "spender",
          "type": "address"
        },
        {
          "internalType": "uint256",
          "name": "value",
          "type": "uint256"
        }
      ],
      "name": "approve",
      "outputs": [
        {
          "internalType": "bool",
          "name": "",
          "type": "bool"
        }
      ],
      "stateMutability": "nonpayable",
      "type": "function"
    },
    {
      "inputs": [
        {
          "internalType": "address",
          "name": "account",
          "type": "address"
        }
      ],
      "name": "balanceOf",
      "outputs": [
        {
          "internalType": "uint256",
          "name": "",
          "type": "uint256"
        }
      ],
      "stateMutability": "view",
      "type": "function"
    },
    {
      "inputs": [
        {
          "internalType": "uint256",
          "name": "_cropId",
          "type": "uint256"
        }
      ],
      "name": "certifyCrop",
      "outputs": [],
      "stateMutability": "nonpayable",
      "type": "function"
    },
    {
      "inputs": [],
      "name": "cropCount",
      "outputs": [
        {
          "internalType": "uint256",
          "name": "",
          "type": "uint256"
        }
      ],
      "stateMutability": "view",
      "type": "function"
    },
    {
      "inputs": [
        {
          "internalType": "uint256",
          "name": "",
          "type": "uint256"
        }
      ],
      "name": "crops",
      "outputs": [
        {
          "internalType": "string",
          "name": "name",
          "type": "string"
        },
        {
          "internalType": "string",
          "name": "certificationStatus",
          "type": "string"
        },
        {
          "internalType": "address",
          "name": "farmer",
          "type": "address"
        }
      ],
      "stateMutability": "view",
      "type": "function"
    },
    {
      "inputs": [],
      "name": "decimals",
      "outputs": [
        {
          "internalType": "uint8",
          "name": "",
          "type": "uint8"
        }
      ],
      "stateMutability": "view",
      "type": "function"
    },
    {
      "inputs": [
        {
          "internalType": "address",
          "name": "",
          "type": "address"
        }
      ],
      "name": "farmers",
      "outputs": [
        {
          "internalType": "string",
          "name": "name",
          "type": "string"
        },
        {
          "internalType": "bool",
          "name": "isRegistered",
          "type": "bool"
        },
        {
          "internalType": "bool",
          "name": "isCertified",
          "type": "bool"
        }
      ],
      "stateMutability": "view",
      "type": "function"
    },
    {
      "inputs": [
        {
          "internalType": "uint256",
          "name": "_cropId",
          "type": "uint256"
        }
      ],
      "name": "getCrop",
      "outputs": [
        {
          "internalType": "string",
          "name": "name",
          "type": "string"
        },
        {
          "internalType": "string",
          "name": "certificationStatus",
          "type": "string"
        },
        {
          "internalType": "address",
          "name": "farmer",
          "type": "address"
        }
      ],
      "stateMutability": "view",
      "type": "function"
    },
    {
      "inputs": [
        {
          "internalType": "address",
          "name": "_farmer",
          "type": "address"
        }
      ],
      "name": "getFarmer",
      "outputs": [
        {
          "internalType": "string",
          "name": "name",
          "type": "string"
        },
        {
          "internalType": "bool",
          "name": "isRegistered",
          "type": "bool"
        },
        {
          "internalType": "bool",
          "name": "isCertified",
          "type": "bool"
        }
      ],
      "stateMutability": "view",
      "type": "function"
    },
    {
      "inputs": [],
      "name": "name",
      "outputs": [
        {
          "internalType": "string",
          "name": "",
          "type": "string"
        }
      ],
      "stateMutability": "view",
      "type": "function"
    },
    {
      "inputs": [],
      "name": "owner",
      "outputs": [
        {
          "internalType": "address",
          "name": "",
          "type": "address"
        }
      ],
      "stateMutability": "view",
      "type": "function"
    },
    {
      "inputs": [
        {
          "internalType": "string",
          "name": "_name",
          "type": "string"
        }
      ],
      "name": "registerFarmer",
      "outputs": [],
      "stateMutability": "nonpayable",
      "type": "function"
    },
    {
      "inputs": [
        {
          "internalType": "string",
          "name": "_name",
          "type": "string"
        }
      ],
      "name": "submitCrop",
      "outputs": [],
      "stateMutability": "nonpayable",
      "type": "function"
    },
    {
      "inputs": [],
      "name": "symbol",
      "outputs": [
        {
          "internalType": "string",
          "name": "",
          "type": "string"
        }
      ],
      "stateMutability": "view",
      "type": "function"
    },
    {
      "inputs": [],
      "name": "totalSupply",
      "outputs": [
        {
          "internalType": "uint256",
          "name": "",
          "type": "uint256"
        }
      ],
      "stateMutability": "view",
      "type": "function"
    },
    {
      "inputs": [
        {
          "internalType": "address",
          "name": "to",
          "type": "address"
        },
        {
          "internalType": "uint256",
          "name": "value",
          "type": "uint256"
        }
      ],
      "name": "transfer",
      "outputs": [
        {
          "internalType": "bool",
          "name": "",
          "type": "bool"
        }
      ],
      "stateMutability": "nonpayable",
      "type": "function"
    },
    {
      "inputs": [
        {
          "internalType": "address",
          "name": "from",
          "type": "address"
        },
        {
          "internalType": "address",
          "name": "to",
          "type": "address"
        },
        {
          "internalType": "uint256",
          "name": "value",
          "type": "uint256"
        }
      ],
      "name": "transferFrom",
      "outputs": [
        {
          "internalType": "bool",
          "name": "",
          "type": "bool"
        }
      ],
      "stateMutability": "nonpayable",
      "type": "function"
    }
  ],
  "bytecode": "0x60806040523480156200001157600080fd5b5060405162002cc538038062002cc5833981810160405281019062000037919062000420565b6040518060400160405280601081526020017f4167726956657269667920546f6b656e000000000000000000000000000000008152506040518060400160405280600381526020017f41475400000000000000000000000000000000000000000000000000000000008152508160039081620000b49190620006c2565b508060049081620000c69190620006c2565b50505033600560006101000a81548173ffffffffffffffffffffffffffffffffffffffff021916908373ffffffffffffffffffffffffffffffffffffffff1602179055506200011c33826200012360201b60201c565b50620008e0565b600073ffffffffffffffffffffffffffffffffffffffff168273ffffffffffffffffffffffffffffffffffffffff1603620001985760006040517fec442f050000000000000000000000000000000000000000000000000000000081526004016200018f9190620007ee565b60405180910390fd5b620001ac60008383620001b060201b60201c565b5050565b600073ffffffffffffffffffffffffffffffffffffffff168373ffffffffffffffffffffffffffffffffffffffff160362000206578060026000828254620001f991906200083a565b92505081905550620002dc565b60008060008573ffffffffffffffffffffffffffffffffffffffff1673ffffffffffffffffffffffffffffffffffffffff1681526020019081526020016000205490508181101562000295578381836040517fe450d38c0000000000000000000000000000000000000000000000000000000081526004016200028c9392919062000886565b60405180910390fd5b8181036000808673ffffffffffffffffffffffffffffffffffffffff1673ffffffffffffffffffffffffffffffffffffffff16815260200190815260200160002081905550505b600073ffffffffffffffffffffffffffffffffffffffff168273ffffffffffffffffffffffffffffffffffffffff160362000327578060026000828254039250508190555062000374565b806000808473ffffffffffffffffffffffffffffffffffffffff1673ffffffffffffffffffffffffffffffffffffffff168152602001908152602001600020600082825401925050819055505b8173ffffffffffffffffffffffffffffffffffffffff168373ffffffffffffffffffffffffffffffffffffffff167fddf252ad1be2c89b69c2b068fc378daa952ba7f163c4a11628f55a4df523b3ef83604051620003d39190620008c3565b60405180910390a3505050565b600080fd5b6000819050919050565b620003fa81620003e5565b81146200040657600080fd5b50565b6000815190506200041a81620003ef565b92915050565b600060208284031215620004395762000438620003e0565b5b6000620004498482850162000409565b91505092915050565b600081519050919050565b7f4e487b7100000000000000000000000000000000000000000000000000000000600052604160045260246000fd5b7f4e487b7100000000000000000000000000000000000000000000000000000000600052602260045260246000fd5b60006002820490506001821680620004d457607f821691505b602082108103620004ea57620004e96200048c565b5b50919050565b60008190508160005260206000209050919050565b60006020601f8301049050919050565b600082821b905092915050565b600060088302620005547fffffffffffffffffffffffffffffffffffffffffffffffffffffffffffffffff8262000515565b62000560868362000515565b95508019841693508086168417925050509392505050565b6000819050919050565b6000620005a36200059d6200059784620003e5565b62000578565b620003e5565b9050919050565b6000819050919050565b620005bf8362000582565b620005d7620005ce82620005aa565b84845462000522565b825550505050565b600090565b620005ee620005df565b620005fb818484620005b4565b505050565b5b81811015620006235762000617600082620005e4565b60018101905062000601565b5050565b601f82111562000672576200063c81620004f0565b620006478462000505565b8101602085101562000657578190505b6200066f620006668562000505565b83018262000600565b50505b505050565b600082821c905092915050565b6000620006976000198460080262000677565b1980831691505092915050565b6000620006b2838362000684565b9150826002028217905092915050565b620006cd8262000452565b67ffffffffffffffff811115620006e957620006e86200045d565b5b620006f58254620004bb565b6200070282828562000627565b600060209050601f8311600181146200073a576000841562000725578287015190505b620007318582620006a4565b865550620007a1565b601f1984166200074a86620004f0565b60005b8281101562000774578489015182556001820191506020850194506020810190506200074d565b8683101562000794578489015162000790601f89168262000684565b8355505b6001600288020188555050505b505050505050565b600073ffffffffffffffffffffffffffffffffffffffff82169050919050565b6000620007d682620007a9565b9050919050565b620007e881620007c9565b82525050565b6000602082019050620008056000830184620007dd565b92915050565b7f4e487b7100000000000000000000000000000000000000000000000000000000600052601160045260246000fd5b60006200084782620003e5565b91506200085483620003e5565b92508282019050808211156200086f576200086e6200080b565b5b92915050565b6200088081620003e5565b82525050565b60006060820190506200089d6000830186620007dd565b620008ac602083018562000875565b620008bb604083018462000875565b949350505050565b6000602082019050620008da600083018462000875565b92915050565b6123d580620008f06000396000f3fe608060405234801561001057600080fd5b50600436106101165760003560e01c80637ba7295e116100a2578063a9059cbb11610071578063a9059cbb1461030f578063dd62ed3e1461033f578063dfd55a2c1461036f578063e7609c161461038d578063efe4e80c146103bf57610116565b80637ba7295e146102855780638bc7fa9c146102a15780638da5cb5b146102d357806395d89b41146102f157610116565b806323b872dd116100e957806323b872dd146101a3578063313ce567146101d3578063401b2168146101f157806370a082311461022357806370c9f1a51461025357610116565b806306fdde031461011b578063095ea7b31461013957806318160ddd146101695780631e5ed88014610187575b600080fd5b6101236103db565b6040516101309190611804565b60405180910390f35b610153600480360381019061014e91906118ce565b61046d565b6040516101609190611929565b60405180910390f35b610171610490565b60405161017e9190611953565b60405180910390f35b6101a1600480360381019061019c9190611aa3565b61049a565b005b6101bd60048036038101906101b89190611aec565b610686565b6040516101ca9190611929565b60405180910390f35b6101db6106b5565b6040516101e89190611b5b565b60405180910390f35b61020b60048036038101906102069190611b76565b6106be565b60405161021a93929190611ba3565b60405180910390f35b61023d60048036038101906102389190611b76565b61078a565b60405161024a9190611953565b60405180910390f35b61026d60048036038101906102689190611be1565b6107d2565b60405161027c93929190611c1d565b60405180910390f35b61029f600480360381019061029a9190611aa3565b61092c565b005b6102bb60048036038101906102b69190611be1565b610ac6565b6040516102ca93929190611c1d565b60405180910390f35b6102db610c83565b6040516102e89190611c62565b60405180910390f35b6102f9610ca9565b6040516103069190611804565b60405180910390f35b610329600480360381019061032491906118ce565b610d3b565b6040516103369190611929565b60405180910390f35b61035960048036038101906103549190611c7d565b610d5e565b6040516103669190611953565b60405180910390f35b610377610de5565b6040516103849190611953565b60405180910390f35b6103a760048036038101906103a29190611b76565b610deb565b6040516103b693929190611ba3565b60405180910390f35b6103d960048036038101906103d49190611be1565b610f23565b005b6060600380546103ea90611cec565b80601f016020809104026020016040519081016040528092919081815260200182805461041690611cec565b80156104635780601f1061043857610100808354040283529160200191610463565b820191906000526020600020905b81548152906001019060200180831161044657829003601f168201915b5050505050905090565b6000806104786111d6565b90506104858185856111de565b600191505092915050565b6000600254905090565b600860003373ffffffffffffffffffffffffffffffffffffffff1673ffffffffffffffffffffffffffffffffffffffff16815260200190815260200160002060010160009054906101000a900460ff16610529576040517f08c379a000000000000000000000000000000000000000000000000000000000815260040161052090611d69565b60405180910390fd5b6006600081548092919061053c90611db8565b919050555060405180606001604052808281526020016040518060400160405280600781526020017f50656e64696e670000000000000000000000000000000000000000000000000081525081526020013373ffffffffffffffffffffffffffffffffffffffff1681525060076000600654815260200190815260200160002060008201518160000190816105d19190611fac565b5060208201518160010190816105e79190611fac565b5060408201518160020160006101000a81548173ffffffffffffffffffffffffffffffffffffffff021916908373ffffffffffffffffffffffffffffffffffffffff1602179055509050503373ffffffffffffffffffffffffffffffffffffffff166006547f5e74815c61df844bd485de7c94667f36d12105a7f43f7d16d6ca61015f7925c08360405161067b9190611804565b60405180910390a350565b6000806106916111d6565b905061069e8582856111f0565b6106a9858585611284565b60019150509392505050565b60006012905090565b60086020528060005260406000206000915090508060000180546106e190611cec565b80601f016020809104026020016040519081016040528092919081815260200182805461070d90611cec565b801561075a5780601f1061072f5761010080835404028352916020019161075a565b820191906000526020600020905b81548152906001019060200180831161073d57829003601f168201915b5050505050908060010160009054906101000a900460ff16908060010160019054906101000a900460ff16905083565b60008060008373ffffffffffffffffffffffffffffffffffffffff1673ffffffffffffffffffffffffffffffffffffffff168152602001908152602001600020549050919050565b60076020528060005260406000206000915090508060000180546107f590611cec565b80601f016020809104026020016040519081016040528092919081815260200182805461082190611cec565b801561086e5780601f106108435761010080835404028352916020019161086e565b820191906000526020600020905b81548152906001019060200180831161085157829003601f168201915b50505050509080600101805461088390611cec565b80601f01602080910402602001604051908101604052809291908181526020018280546108af90611cec565b80156108fc5780601f106108d1576101008083540402835291602001916108fc565b820191906000526020600020905b8154815290600101906020018083116108df57829003601f168201915b5050505050908060020160009054906101000a900473ffffffffffffffffffffffffffffffffffffffff16905083565b600860003373ffffffffffffffffffffffffffffffffffffffff1673ffffffffffffffffffffffffffffffffffffffff16815260200190815260200160002060010160009054906101000a900460ff16156109bc576040517f08c379a00000000000000000000000000000000000000000000000000000000081526004016109b3906120ca565b60405180910390fd5b604051806060016040528082815260200160011515815260200160001515815250600860003373ffffffffffffffffffffffffffffffffffffffff1673ffffffffffffffffffffffffffffffffffffffff1681526020019081526020016000206000820151816000019081610a319190611fac565b5060208201518160010160006101000a81548160ff02191690831515021790555060408201518160010160016101000a81548160ff0219169083151502179055509050503373ffffffffffffffffffffffffffffffffffffffff167f42558426a946ab6e527d7f548e7bd3e34c2a7ddde555007464cdfbb5f58665f882604051610abb9190611804565b60405180910390a250565b60608060008060076000868152602001908152602001600020604051806060016040529081600082018054610afa90611cec565b80601f0160208091040260200160405190810160405280929190818152602001828054610b2690611cec565b8015610b735780601f10610b4857610100808354040283529160200191610b73565b820191906000526020600020905b815481529060010190602001808311610b5657829003601f168201915b50505050508152602001600182018054610b8c90611cec565b80601f0160208091040260200160405190810160405280929190818152602001828054610bb890611cec565b8015610c055780601f10610bda57610100808354040283529160200191610c05565b820191906000526020600020905b815481529060010190602001808311610be857829003601f168201915b505050505081526020016002820160009054906101000a900473ffffffffffffffffffffffffffffffffffffffff1673ffffffffffffffffffffffffffffffffffffffff1673ffffffffffffffffffffffffffffffffffffffff16815250509050806000015181602001518260400151935093509350509193909250565b600560009054906101000a900473ffffffffffffffffffffffffffffffffffffffff1681565b606060048054610cb890611cec565b80601f0160208091040260200160405190810160405280929190818152602001828054610ce490611cec565b8015610d315780601f10610d0657610100808354040283529160200191610d31565b820191906000526020600020905b815481529060010190602001808311610d1457829003601f168201915b5050505050905090565b600080610d466111d6565b9050610d53818585611284565b600191505092915050565b6000600160008473ffffffffffffffffffffffffffffffffffffffff1673ffffffffffffffffffffffffffffffffffffffff16815260200190815260200160002060008373ffffffffffffffffffffffffffffffffffffffff1673ffffffffffffffffffffffffffffffffffffffff16815260200190815260200160002054905092915050565b60065481565b60606000806000600860008673ffffffffffffffffffffffffffffffffffffffff1673ffffffffffffffffffffffffffffffffffffffff168152602001908152602001600020604051806060016040529081600082018054610e4c90611cec565b80601f0160208091040260200160405190810160405280929190818152602001828054610e7890611cec565b8015610ec55780601f10610e9a57610100808354040283529160200191610ec5565b820191906000526020600020905b815481529060010190602001808311610ea857829003601f168201915b505050505081526020016001820160009054906101000a900460ff161515151581526020016001820160019054906101000a900460ff1615151515815250509050806000015181602001518260400151935093509350509193909250565b600560009054906101000a900473ffffffffffffffffffffffffffffffffffffffff1673ffffffffffffffffffffffffffffffffffffffff163373ffffffffffffffffffffffffffffffffffffffff1614610fb3576040517f08c379a0000000000000000000000000000000000000000000000000000000008152600401610faa90612136565b60405180910390fd5b600081118015610fc557506006548111155b611004576040517f08c379a0000000000000000000000000000000000000000000000000000000008152600401610ffb906121a2565b60405180910390fd5b60405160200161101390612219565b604051602081830303815290604052805190602001206007600083815260200190815260200160002060010160405160200161104f91906122b1565b60405160208183030381529060405280519060200120146110a5576040517f08c379a000000000000000000000000000000000000000000000000000000000815260040161109c90612314565b60405180910390fd5b6040518060400160405280600981526020017f43657274696669656400000000000000000000000000000000000000000000008152506007600083815260200190815260200160002060010190816110fd9190611fac565b506001600860006007600085815260200190815260200160002060020160009054906101000a900473ffffffffffffffffffffffffffffffffffffffff1673ffffffffffffffffffffffffffffffffffffffff1673ffffffffffffffffffffffffffffffffffffffff16815260200190815260200160002060010160016101000a81548160ff0219169083151502179055503373ffffffffffffffffffffffffffffffffffffffff16817f02792da377d7019f8ae4b4b88eaf7f1376ce90741dd9306e0a51cf6616b9768360405160405180910390a350565b600033905090565b6111eb8383836001611378565b505050565b60006111fc8484610d5e565b90507fffffffffffffffffffffffffffffffffffffffffffffffffffffffffffffffff811461127e578181101561126e578281836040517ffb8f41b200000000000000000000000000000000000000000000000000000000815260040161126593929190612334565b60405180910390fd5b61127d84848484036000611378565b5b50505050565b600073ffffffffffffffffffffffffffffffffffffffff168373ffffffffffffffffffffffffffffffffffffffff16036112f65760006040517f96c6fd1e0000000000000000000000000000000000000000000000000000000081526004016112ed9190611c62565b60405180910390fd5b600073ffffffffffffffffffffffffffffffffffffffff168273ffffffffffffffffffffffffffffffffffffffff16036113685760006040517fec442f0500000000000000000000000000000000000000000000000000000000815260040161135f9190611c62565b60405180910390fd5b61137383838361154f565b505050565b600073ffffffffffffffffffffffffffffffffffffffff168473ffffffffffffffffffffffffffffffffffffffff16036113ea5760006040517fe602df050000000000000000000000000000000000000000000000000000000081526004016113e19190611c62565b60405180910390fd5b600073ffffffffffffffffffffffffffffffffffffffff168373ffffffffffffffffffffffffffffffffffffffff160361145c5760006040517f94280d620000000000000000000000000000000000000000000000000000000081526004016114539190611c62565b60405180910390fd5b81600160008673ffffffffffffffffffffffffffffffffffffffff1673ffffffffffffffffffffffffffffffffffffffff16815260200190815260200160002060008573ffffffffffffffffffffffffffffffffffffffff1673ffffffffffffffffffffffffffffffffffffffff168152602001908152602001600020819055508015611549578273ffffffffffffffffffffffffffffffffffffffff168473ffffffffffffffffffffffffffffffffffffffff167f8c5be1e5ebec7d5bd14f71427d1e84f3dd0314c0f7b2291e5b200ac8c7c3b925846040516115409190611953565b60405180910390a35b50505050565b600073ffffffffffffffffffffffffffffffffffffffff168373ffffffffffffffffffffffffffffffffffffffff16036115a1578060026000828254611595919061236b565b92505081905550611674565b60008060008573ffffffffffffffffffffffffffffffffffffffff1673ffffffffffffffffffffffffffffffffffffffff1681526020019081526020016000205490508181101561162d578381836040517fe450d38c00000000000000000000000000000000000000000000000000000000815260040161162493929190612334565b60405180910390fd5b8181036000808673ffffffffffffffffffffffffffffffffffffffff1673ffffffffffffffffffffffffffffffffffffffff16815260200190815260200160002081905550505b600073ffffffffffffffffffffffffffffffffffffffff168273ffffffffffffffffffffffffffffffffffffffff16036116bd578060026000828254039250508190555061170a565b806000808473ffffffffffffffffffffffffffffffffffffffff1673ffffffffffffffffffffffffffffffffffffffff168152602001908152602001600020600082825401925050819055505b8173ffffffffffffffffffffffffffffffffffffffff168373ffffffffffffffffffffffffffffffffffffffff167fddf252ad1be2c89b69c2b068fc378daa952ba7f163c4a11628f55a4df523b3ef836040516117679190611953565b60405180910390a3505050565b600081519050919050565b600082825260208201905092915050565b60005b838110156117ae578082015181840152602081019050611793565b60008484015250505050565b6000601f19601f8301169050919050565b60006117d682611774565b6117e0818561177f565b93506117f0818560208601611790565b6117f9816117ba565b840191505092915050565b6000602082019050818103600083015261181e81846117cb565b905092915050565b6000604051905090565b600080fd5b600080fd5b600073ffffffffffffffffffffffffffffffffffffffff82169050919050565b60006118658261183a565b9050919050565b6118758161185a565b811461188057600080fd5b50565b6000813590506118928161186c565b92915050565b6000819050919050565b6118ab81611898565b81146118b657600080fd5b50565b6000813590506118c8816118a2565b92915050565b600080604083850312156118e5576118e4611830565b5b60006118f385828601611883565b9250506020611904858286016118b9565b9150509250929050565b60008115159050919050565b6119238161190e565b82525050565b600060208201905061193e600083018461191a565b92915050565b61194d81611898565b82525050565b60006020820190506119686000830184611944565b92915050565b600080fd5b600080fd5b7f4e487b7100000000000000000000000000000000000000000000000000000000600052604160045260246000fd5b6119b0826117ba565b810181811067ffffffffffffffff821117156119cf576119ce611978565b5b80604052505050565b60006119e2611826565b90506119ee82826119a7565b919050565b600067ffffffffffffffff821115611a0e57611a0d611978565b5b611a17826117ba565b9050602081019050919050565b82818337600083830152505050565b6000611a46611a41846119f3565b6119d8565b905082815260208101848484011115611a6257611a61611973565b5b611a6d848285611a24565b509392505050565b600082601f830112611a8a57611a8961196e565b5b8135611a9a848260208601611a33565b91505092915050565b600060208284031215611ab957611ab8611830565b5b600082013567ffffffffffffffff811115611ad757611ad6611835565b5b611ae384828501611a75565b91505092915050565b600080600060608486031215611b0557611b04611830565b5b6000611b1386828701611883565b9350506020611b2486828701611883565b9250506040611b35868287016118b9565b9150509250925092565b600060ff82169050919050565b611b5581611b3f565b82525050565b6000602082019050611b706000830184611b4c565b92915050565b600060208284031215611b8c57611b8b611830565b5b6000611b9a84828501611883565b91505092915050565b60006060820190508181036000830152611bbd81866117cb565b9050611bcc602083018561191a565b611bd9604083018461191a565b949350505050565b600060208284031215611bf757611bf6611830565b5b6000611c05848285016118b9565b91505092915050565b611c178161185a565b82525050565b60006060820190508181036000830152611c3781866117cb565b90508181036020830152611c4b81856117cb565b9050611c5a6040830184611c0e565b949350505050565b6000602082019050611c776000830184611c0e565b92915050565b60008060408385031215611c9457611c93611830565b5b6000611ca285828601611883565b9250506020611cb385828601611883565b9150509250929050565b7f4e487b7100000000000000000000000000000000000000000000000000000000600052602260045260246000fd5b60006002820490506001821680611d0457607f821691505b602082108103611d1757611d16611cbd565b5b50919050565b7f4661726d6572206d757374206265207265676973746572656400000000000000600082015250565b6000611d5360198361177f565b9150611d5e82611d1d565b602082019050919050565b60006020820190508181036000830152611d8281611d46565b9050919050565b7f4e487b7100000000000000000000000000000000000000000000000000000000600052601160045260246000fd5b6000611dc382611898565b91507fffffffffffffffffffffffffffffffffffffffffffffffffffffffffffffffff8203611df557611df4611d89565b5b600182019050919050565b60008190508160005260206000209050919050565b60006020601f8301049050919050565b600082821b905092915050565b600060088302611e627fffffffffffffffffffffffffffffffffffffffffffffffffffffffffffffffff82611e25565b611e6c8683611e25565b95508019841693508086168417925050509392505050565b6000819050919050565b6000611ea9611ea4611e9f84611898565b611e84565b611898565b9050919050565b6000819050919050565b611ec383611e8e565b611ed7611ecf82611eb0565b848454611e32565b825550505050565b600090565b611eec611edf565b611ef7818484611eba565b505050565b5b81811015611f1b57611f10600082611ee4565b600181019050611efd565b5050565b601f821115611f6057611f3181611e00565b611f3a84611e15565b81016020851015611f49578190505b611f5d611f5585611e15565b830182611efc565b50505b505050565b600082821c905092915050565b6000611f8360001984600802611f65565b1980831691505092915050565b6000611f9c8383611f72565b9150826002028217905092915050565b611fb582611774565b67ffffffffffffffff811115611fce57611fcd611978565b5b611fd88254611cec565b611fe3828285611f1f565b600060209050601f8311600181146120165760008415612004578287015190505b61200e8582611f90565b865550612076565b601f19841661202486611e00565b60005b8281101561204c57848901518255600182019150602085019450602081019050612027565b868310156120695784890151612065601f891682611f72565b8355505b6001600288020188555050505b505050505050565b7f4661726d657220697320616c7265616479207265676973746572656400000000600082015250565b60006120b4601c8361177f565b91506120bf8261207e565b602082019050919050565b600060208201905081810360008301526120e3816120a7565b9050919050565b7f43616c6c6572206973206e6f7420746865206f776e6572000000000000000000600082015250565b600061212060178361177f565b915061212b826120ea565b602082019050919050565b6000602082019050818103600083015261214f81612113565b9050919050565b7f496e76616c69642063726f702049440000000000000000000000000000000000600082015250565b600061218c600f8361177f565b915061219782612156565b602082019050919050565b600060208201905081810360008301526121bb8161217f565b9050919050565b600081905092915050565b7f50656e64696e6700000000000000000000000000000000000000000000000000600082015250565b60006122036007836121c2565b915061220e826121cd565b600782019050919050565b6000612224826121f6565b9150819050919050565b6000815461223b81611cec565b61224581866121c2565b945060018216600081146122605760018114612275576122a8565b60ff19831686528115158202860193506122a8565b61227e85611e00565b60005b838110156122a057815481890152600182019150602081019050612281565b838801955050505b50505092915050565b60006122bd828461222e565b915081905092915050565b7f43726f7020697320616c72656164792063657274696669656400000000000000600082015250565b60006122fe60198361177f565b9150612309826122c8565b602082019050919050565b6000602082019050818103600083015261232d816122f1565b9050919050565b60006060820190506123496000830186611c0e565b6123566020830185611944565b6123636040830184611944565b949350505050565b600061237682611898565b915061238183611898565b925082820190508082111561239957612398611d89565b5b9291505056fea2646970667358221220b66f070f61e98a87c39629d5b886b81ded7e61c3ce09ca098c72311a510ae08964736f6c63430008140033",
  "linkReferences": {},
  "deployedLinkReferences": {}
}